:060000000A128A1100291A
:10000800F000030EF1000C1854210B191F218C1855
:0C0018006721710E8300F00E700E0900CD
:100200000B217021772184219421A12103138312D2
:1002100026213B210829031783168801890103132E
:100220008316051086018701880103138312850157
:10023000860187018801A101A201A401080003131E
:100240008312FA3081000B112D21080022080022B0
:10025000AA0021080022AB00080008108810271807
:1002600036292A0887008814271408002B088700DD
:1002700008142710080003138312A101A201250806
:10028000A4000A30A402A10A03184129A1030A30DC
:10029000A4074B2108000130A402A20A03184B292D
:1002A000A2030130A4070800031383120B308F0050
:1002B000DC308E000C10A30AA31C0800A301A50AC1
:1002C0002508A0006430A0020319A50108008C10C5
:1002D000A60AA61C0800A61D0800A601850A08009B
:1002E000031383160F140F178F160F120800031332
:1002F00083168112811101158114011403138312D5
:10030000FA3081000B110800031383129010901132
:100310009016101610131014031383120B308F0055
:10032000DC308E000C10080003138316F0309200AE
:1003300003138312921412141217921612129211AE
:100340001215031383160C148C14031383128B17CA
:0C0350000B178B160B110C108C10080002
:100400008A018A140F3982073F3406345B344F3433
:1004100066346D347D3407347F346F3477347C3404
:0804200039345E347934713483
:04400E00D420FF3F7C
:00000001FF
